:020000041000EA
:100000000040002899010010CB010010CF01001022
:1000100000000000000000000000000000000000E0
:10002000000000000000000000000000CB010010F4
:100030000000000000000000CB010010CB01001008
:10004000CB010010CB0100100D0500104105001080
:1000500075050010A9050010DD050010110600103F
:10006000CB010010CB010010CB010010CB01001020
:10007000CB010010CB010010CB010010CB01001010
:100080000448054B10B5834203D0044B002B00D02D
:10009000984710BDD8080028D808002800000000A4
:1000A00006480749091A8B10C90FC91810B549101D
:1000B00003D0044B002B00D0984710BDD80800286F
:1000C000D80800280000000010B5074C2378002B4A
:1000D00009D1FFF7D5FF054B002B02D0044800E003
:1000E00000BF0123237010BD901500280000000000
:1000F0002C210010054B10B5002B03D004490548F6
:1001000000E000BFFFF7CCFF10BDC04600000000BC
:10011000941500282C210010402292029A1A92462F
:100120007047C046174B002B00D1134B9D46FFF77D
:10013000F3FF00218B460F461348144A121A01F0B0
:1001400077FF0E4B002B00D098470D4B002B00D0B3
:1001500098470020002104000D000D48002802D01F
:100160000C4800E000BF01F02FFF2000290000F044
:1001700047F801F015FFC04600000800000000002D
:10018000250200100040002890150028281700289C
:1001900000000000000000000120C00413490A68AC
:1001A00002430A6012490A6802430A6011490A6858
:1001B00002430A6010481149002200230CC0884203
:1001C000FCD300F0A1F800F031F8FEE7FEE700B53F
:1001D00004207146084202D0EFF3098002E0EFF3F9
:1001E0000880043000F0D2FCFEE70000001320403D
:1001F00080132040A0132040003F0028004000282A
:1002000010B562B60020054900F02AF9012000F07F
:10021000D5FC002000F03EFDFBE7C04600000810C2
:10022000FEE7704710B5FFF7FCFF10BD70B5114B2E
:100230001148834211D30020104B11498B4217D330
:10024000FFF770FF1C68910065585C6801326550CB
:1002500099688A42F6D30C33EBE70022F8E71C6872
:100260009500285101325C68A242F8D30833E5E7D3
:100270000022F8E7002200100C2200100C220010CF
:1002800014220010002310B5054A064C06499800B8
:10029000013314508B42FAD1044B1A6010BDC04692
:1002A000F8080028210200101E030000D8080028CA
:1002B0007047000070B5002000F01EFC0E4C60601E
:1002C00000F050FCA060022000F016FCA5680B4B6B
:1002D000E0602561E8180A4900F038FDFA21094B71
:1002E00060618900E81800F031FDA061002000F095
:1002F00003FCE06170BDC046D80800283F420F00F3
:1003000040420F00E703000070B500240025284B91
:10031000284A591EFF398A4245D300200021264A27
:10032000934242D99820FF24244B40011A58244973
:10033000244D0A401A5080301A580A401A50203072
:100340001A580A401A50204A2800920822401F4991
:10035000920001F05DFE40211D4BC0229D600B68A4
:1003600092002B6444231B686B641A4B9858A0437B
:1003700001439950995818480140995001221A6038
:1003800092181A60154800F06FF900F0C7FC144A83
:1003900013685B005B081360FFF78AFFFFF78AFFB3
:1003A000FFF770FF70BD30C2B5E703C3B8E7C046C2
:1003B0000040002800080028FFFF09280000204016
:1003C000FFFFF7FF00080028800000100000001069
:1003D00000ED00E000E100E0FF00FFFF1021001051
:1003E00000C02640031E06D19023064A5B01D05868
:1003F0000323184070470020012BFBD1014A024B18
:10040000F5E7C046000020401012000000280DD182
:1004100090200E4B400119580D4A11400D4A0A43D5
:100420001A50102259681142FCD070470128FCD1A3
:100430000948064B064A19581140064A0A431A5001
:100440001022064819581142FCD0EEE70000204067
:10045000FCFF00000100FA05101200000404000077
:1004600070B504000D0000F0F8F806002000FFF75A
:10047000B9FF032802D12000FFF7C8FF80231B49E2
:100480001B4A1B06885803438B50002C16D1802230
:100490009020184B92009D5040011958164A114067
:1004A000164A0A4310211A505A680A42FCD0DA68E8
:1004B0008A43DA60300000F0D4F870BD012CF9D125
:1004C000C0220C4B0E48D2009D5019580A4A1140C8
:1004D0000A4A0A431A5010200A495A580242FCD0CC
:1004E00009495A5882435A50E4E7C0460000264062
:1004F0004412000000002040FCFF00000300FA0549
:1005000010120000040400000C040000094B10B598
:100510001A68002A07DA1B68074A9B051B0D9B58BF
:10052000002B00D09847C0230421044A5B00D1501F
:1005300010BDC04608112040F808002800E100E086
:10054000094B10B51A68002A07DA1B68074A9B0591
:100550001B0D9B58002B00D09847C0230821044A4C
:100560005B00D15010BDC0460C112040F808002897
:1005700000E100E0094B10B51A68002A07DA1B6891
:10058000074A9B051B0D9B58002B00D09847C023A2
:100590001021044A5B00D15010BDC046101120400C
:1005A000F808002800E100E0094B10B51A68002A9D
:1005B00007DA1B68074A9B051B0D9B58002B00D0D0
:1005C0009847C0232021044A5B00D15010BDC0468B
:1005D00014112040F808002800E100E0094B10B594
:1005E0001A68002A07DA1B68074A9B051B0D9B58EF
:1005F000002B00D09847C0234021044A5B00D15013
:1006000010BDC04618112040F808002800E100E0A5
:10061000094B10B51A68002A07DA1B68074A9B05C0
:100620001B0D9B58002B00D09847C0238021044A03
:100630005B00D15010BDC0461C112040F8080028B6
:1006400000E100E0000000000230800803D001302B
:100650000238FCD1C046C0467047EFF3108072B636
:10066000704780F310887047014B18607047C04690
:10067000AC1500289223DB00C018034B8000C05843
:100680008006800F7047C04600002640030000200F
:100690000D2B08D89222D2009B18034A9B009B582E
:1006A00001301B0A9843704700002640024B18692E
:1006B0004007C00F7047C04600002740044B054A62
:1006C000D05803231840984200D102207047C046FA
:1006D000241500000000264010B5FFF7EFFF0023AF
:1006E000022801D1014B1B68180010BDB415002869
:1006F000024B18688007C00F7047C046880027402B
:1007000010B5FFF7F5FF094A0300D26F520006D576
:100710000023984203D00122054B1B6813400020A0
:10072000834201D0034B186810BDC0460400274027
:1007300088002740B8150028084A8300991890229D
:100740005201885807221040042806D1044AFC3080
:100750009B181F225B681340184370470000264017
:10076000FC00264010B5FFF7E7FF052806D800F08B
:10077000E3FA0311140F0F170F4810BD1223FF33B4
:10078000984210D00333984211D0043B98420ED0C7
:100790000020F2E7094B1868EFE7FFF79DFFECE751
:1007A000FFF7AEFFE9E7FFF781FFC003E5E7044A83
:1007B000044BD058C00FF8E700127A00B01500289B
:1007C0000000264008150000144A154B10B5D358F8
:1007D0000F249903DB01DB0F890BC371114B0160FF
:1007E000D358D9041B0CDBB203810F4BC90CD3586F
:1007F000818019002140817219092140C172D902FA
:100800009B009B0F8373094BC90CD35881815A05F8
:10081000DB01520FDB0D8271038210BD0000264008
:100820003015000034150000381500003C1500009C
:10083000F0B5002689B003AD14220021280001F094
:10084000F7FB2800FFF7C0FF164A174BD358B342F7
:1008500024DAAB7B022B21D0AC88B4421ED030000E
:10086000ED79039FFFF77EFF2200330031000190F6
:10087000681C00F017FB0C00050033003A00310043
:10088000019800F00FFBE6076A08324363088018FE
:1008900059412A00230000F0E5FA0600300009B0B3
:1008A000F0BDC046000026403015000070B50C00B9
:1008B000050018220021200001F0BAFB144B28018A
:1008C000C118C8231F255B01CB581A0A2A40237080
:1008D00062701A0C9B009B0F2A4023710D4BA27073
:1008E000CB5807211A02120AA2601A0F0A40551E9D
:1008F000AA41DB0F6373084B2273C0180368002002
:10090000DAB222611A0C0A40DB0F2275637570BDE2
:10091000000026400419000008192640F0B5060022
:1009200089B01822002102A801F082FB300002A940
:10093000FFF7BCFF3300002491331B4AFF331B0138
:100940009B58A3422DDA02AB1B79022B29D002ABB4
:100950005B780093A34224D002AB9D78A54220D0BF
:100960001F78049B701C0193FFF7FCFE210002001E
:1009700038062700019E23008019794100F092FA81
:10098000230006000F002A002100009800F08AFAD8
:1009900002000B003000390000F064FA0C02000E77
:1009A0000443200009B0F0BD0000264070B50C00E3
:1009B000050018220021200001F03AFBB0237F221D
:1009C0001F21DB00ED18094BAD00EB5800201A4049
:1009D00022701A0A0A4062701A0C0A40A2701A01A8
:1009E000CA409B009B0FE270237170BD000026403F
:1009F000F0B5040089B01822002102A801F018FB0C
:100A0000200002A9FFF7D2FFB0230026DB00194A1D
:100A1000E3189B009B58B34229DA02AB1B79022BE7
:100A200025D002AB5D78B54221D09F78B7421ED069
:100A30001B78A01D0093FFF795FE33003A003100AC
:100A40000190280000F02EFA0C0005003300310060
:100A5000009A019800F026FAE6076A083243630814
:100A6000801859412A00230000F0FCF906003000EC
:100A700009B0F0BD00002640421E064B042A05D8EE
:100A80009030FF3000011858C00F7047024A80189C
:100A90008000F8E7000026407A05000003000138D6
:100AA00010B5042802D8FFF739FF10BD981FFFF7D3
:100AB0009FFFFAE770B50500FFF754FE0400002D14
:100AC00009D10B4A0B4BD358002B02DAFFF7B0FECB
:100AD0000400200070BD6B1E072BFAD82800FFF71A
:100AE000CBFF0028F5D02800FFF7D8FFF0E7C0467D
:100AF000000026403015000070B50600FFF7BAFD73
:100B00009223DB000B4AF3189B00040098580F2334
:100B10001840FFF7CFFF05003000FFF7B7FD0028B2
:100B200005D10130A04040084019E04070BD0248A6
:100B3000FCE7C0460000264000127A0010B50020F5
:100B4000FFF7DAFF054A064BD158090AC9B201314D
:100B50004B08181800F0FAF810BDC04600002040FD
:100B60001010000010B5FFF7E9FF054A054BD158FA
:100B7000090AC9B201314B08181800F0E7F810BD96
:100B80000000204008100000FEE7000002680A4B49
:100B900010B51A6042685A6082689A60C268DA606A
:100BA00002691A6142695A6182699A61C269DA61AD
:100BB000FFF7EAFF10BDC04670150028054B022262
:100BC0001969002802D00A431A61704791431961DC
:100BD000FBE7C04600ED00E0254B73B586000D0035
:100BE000F458042901D0012925D100200EE0A36882
:100BF0002B420AD1E36829001A685B6868460193B2
:100C00000092236898471B4B1C606469002C0AD033
:100C1000194B9842EBD1012DE9D1164A174B1268B6
:100C200015489A5176BD012DFCD1134B9842F4D052
:100C3000124B9C51F6E7022914D026006469002C5F
:100C4000FBD10020002EEDD0B3682B4208D1F36811
:100C500029001A685B6868460193009233689847D8
:100C60003669EFE7034B1B68181EDBD01E69E8E707
:100C7000D4150028D0150028FF004200BC1500281C
:100C80008023034A5B01D0588006C00F7047C046DE
:100C90000000264070B50600FFF7F2FF002834D0B0
:100CA0001B4D6B68002B15D1FFF7D7FC6B68040058
:100CB000002B1DD10423174A11690B431361012E28
:100CC0001BD030BF2000FFF7CCFC6C68002C16D185
:100CD000200070BD01210800FFF77EFF041EE3D055
:100CE0006B68002BF4D002210120FFF775FFEFE7BE
:100CF00004210120FFF770FFDCE720BFE2E70821B5
:100D00000120FFF769FF0024E2E7034CE0E7C0465B
:100D1000D415002800ED00E0FF0042000322054B3F
:100D2000196C9143023A0A431A640222196C0A436D
:100D30001A64704700C0264002B471464908490051
:100D4000095C49008E4402BC7047C046002243083B
:100D50008B4274D303098B425FD3030A8B4244D383
:100D6000030B8B4228D3030C8B420DD3FF220902C5
:100D700012BA030C8B4202D31212090265D0030B84
:100D80008B4219D300E0090AC30B8B4201D3CB037A
:100D9000C01A5241830B8B4201D38B03C01A5241BC
:100DA000430B8B4201D34B03C01A5241030B8B42BE
:100DB00001D30B03C01A5241C30A8B4201D3CB02A9
:100DC000C01A5241830A8B4201D38B02C01A52418E
:100DD000430A8B4201D34B02C01A5241030A8B4291
:100DE00001D30B02C01A5241CDD2C3098B4201D3A9
:100DF000CB01C01A524183098B4201D38B01C01A27
:100E0000524143098B4201D34B01C01A524103099D
:100E10008B4201D30B01C01A5241C3088B4201D34C
:100E2000CB00C01A524183088B4201D38B00C01AF9
:100E3000524143088B4201D34B00C01A5241411A20
:100E400000D20146524110467047FFE701B500202D
:100E500000F006F802BDC0460029F7D076E77047DB
:100E60007047C046002B11D1002A0FD1002900D1B4
:100E7000002802D00021C943080007B4024802A19B
:100E80004018029003BDC046D9FFFFFF03B4684677
:100E900001B5029800F034F8019B9E4602B00CBCEC
:100EA0007047C046F0B5CE469946030C9C461304E5
:100EB00047461B0C1D000E0061460404240C80B53F
:100EC0000700100C4B436543414360432C0CC01892
:100ED00020188C46834203D980235B029846C44481
:100EE000494679435643030C2D042D0C891963445C
:100EF00000044019C918C0BCB946B046F0BDC04690
:100F0000F0B557464E464546DE46E0B504000D00B6
:100F10009246994683B08B4230D82DD049465046F0
:100F200001F032F829000600200001F02DF8331AF4
:100F30009846203B34D49B4653465A4693404246FB
:100F40001F00534693401E00AF423BD8AF4200D132
:100F500079E05B46A41BBD41002B00DA76E000225D
:100F600000230092019301235A46934001930123E9
:100F700042469340009329E08242CFD900220023C9
:100F8000009201930C9B002B01D01C605D600098C7
:100F9000019903B0F0BCBB46B246A946A046F0BDDD
:100FA00042469B4620239B1A5246DA404146130094
:100FB0004A468A40170042461F43534693401E004C
:100FC000AF42C3D900220023009201934346002B75
:100FD000D8D0FB0772081A4346467B080EE0AB42A6
:100FE00001D1A2420CD8A41A9D41012024196D41BF
:100FF0000021013E24184D41002E06D0AB42EED90F
:10100000013E24196D41002EF8D1009801995B46EC
:1010100000196941002B24DB2B005A464446D3407B
:101020002A00E2401C005B461500002B2ADB26004C
:101030009E40330026004746BE403200801A994148
:10104000009001919EE7A342BCD882E7424620234C
:1010500000219B1A0022009101920122DA400192A4
:1010600085E7424620239B1A2A0046469A402300E1
:10107000F340444613432A00E2401C005B4615003F
:10108000002BD4DA42462F002023260097409B1ADB
:10109000DE403B003343CDE703685A0004D580228D
:1010A00012061343C01870475B005B08FAE7C0469E
:1010B000F8B557464546DE464E469046E0B5070031
:1010C000002924D04B1E9A46994600239B465B4636
:1010D0004B44DC0FE4186410E5007E193000FFF784
:1010E000DBFFA2450CD040450CD82800083038184A
:1010F000FFF7D2FF013840450AD2631C9B46E6E762
:10110000404505D9A34502D0631E9946DFE7002676
:101110003000F0BCBB46B246A946A046F8BDC0466A
:101120000300012805D0022807D00020002B02D0A0
:1011300070470348FCE70348FAE70348F8E7C0466E
:10114000191800100D1800102518001030B5214B8B
:10115000050083B08C1E002B26D0200001A900E0E2
:1011600000BF00281DD001992200FFF7A1FF041E37
:1011700017D0FFF791FF6368A864012B27D0201DCB
:10118000002B22DBFFF788FF00232B650368E86450
:10119000002B0FDBFFF780FF030000202B6103B063
:1011A00030BD00230920F9E70B4B0C481B1AD9105E
:1011B0000191D9E71801000FFFF7B2FF4242424107
:1011C0000300092052421040E8E70123DDE7002335
:1011D0000520E3E70000000000220010602100105D
:1011E000036810B50400DA0705D49B070AD5483018
:1011F00000F092FC23685A070AD51A070FD5DB06C0
:1012000015D510BD483000F083FC23685A07F4D48C
:101210002000D03000F084FC23681A07EFD42000AF
:101220005130FF3000F080FC2368DB06E9D4200059
:10123000D130FF3000F07CFCE3E7C04603000068DB
:10124000002800D0C01870477047C04670B5040031
:101250000D002000296CFFF779FF002811D12B6CBD
:101260002A00636121000120236998470828F0D0F3
:10127000072806D10020296CFFF7E6FF281D00F0A3
:1012800031FC00F0CEFEC046F0B5CE46474680B5F4
:10129000C3682E4C9946A5448369040015000431A7
:1012A000402203A8984600F0B3FE0023029323E0F7
:1012B000F022129B5200636102A97AA800F0A8FEF6
:1012C0002100300023697AAA9847889B060013936F
:1012D0004346019302AB0093220023002900012022
:1012E000C84700281FD1F0227AA9520002A800F0B6
:1012F0008FFE0025082E1FD120001299FFF726FF30
:1013000009350700EEB20028D2D0109B10211393AC
:101310004346019302AB0093220023000120314396
:10132000C847002800D009273800F3239B009D44BC
:10133000C0BCB946B046F0BD072EF4D128001299C2
:10134000FFF782FF03A800F0CDFBC04634FCFFFF8F
:1013500070B5CB6BF8B00B6405000E004022043171
:1013600001A800F055FE01235B42009306E06A46A7
:1013700029002B6998470400082808D128001099F3
:10138000FFF7E4FE0028F2D0092078B070BD68466F
:10139000FFF726FF062CF7D131002800FFF756FF94
:1013A00010B58261DA6BC1601A6419000022FFF780
:1013B0006BFF10BD436970B50B64C36804000D007A
:1013C000002B13D10A000369010002209847072867
:1013D00005D008280FD129002000FFF737FF002093
:1013E000296CFFF731FF281D00F07CFB0122FFF77D
:1013F0004BFF00F016FE00F014FEC046C36810B5A7
:10140000002B05D0CB6B00220B64FFF73DFF10BD16
:10141000FFF79EFFFBE7C046012915D00AD8002B35
:1014200010D10F2A0ED8920080184368009A00202D
:10143000136006E001200339C9B28842804140426E
:10144000013070470220FCE70120FAE700B585B0C3
:1014500003AB0A00009300210023FFF7DDFF039890
:1014600005B000BD012915D00AD8002B10D10F2AD4
:101470000ED8009B92001B6880184360002006E095
:1014800001200339C9B2884280414042013070478F
:101490000220FCE70120FAE700B585B003AB039218
:1014A00000930A0000230021FFF7DCFF05B000BD18
:1014B00070B5194CD36BA544136405000C0017A834
:1014C000111D402200F0A4FD01235B42169313E09E
:1014D0000C2116A86A46FFF7DFFF210016A8A847CF
:1014E00000280FD16946049B16AA083098470600C9
:1014F000052808D0092805D068462699FFF726FE5A
:101500000028E5D0092616A8FFF76AFE30008E23D2
:101510009B009D4470BDC046C8FDFFFFF0B54E4620
:10152000994645465746DE46032392464A46E0B56D
:10153000CD6C89B00340009308CD88460695002AFB
:1015400000D181E01A0C1B040593FF2313409B007C
:10155000ED18022304A94A7304AA1373009B022BFB
:1015600001D143469D6B43461B6DDB070FD55046AB
:1015700005A900F073FB002801D1082000E0092034
:1015800009B0F0BCBB46B246A946A046F0BD2F68E4
:10159000002FECD008230340029300230193013372
:1015A00054469B464646BA464B46022B49D02B88AA
:1015B0006F889A46043559463B008B439846B26C77
:1015C0000F2120009044FFF741FF0023804506D8FB
:1015D00053465A469343434498429B415B420222FE
:1015E0007F001740594652460A401743012F31D019
:1015F000022F4DD0002FC2D1009A002A02D0002B1A
:1016000000D09DE004352B689A46002BCCD12000F9
:1016100005A9A24600F022FB0028B0D1019B002BB7
:10162000ABD00F215046FFF711FF0E2102005046AC
:10163000FFF732FF50460F21734AFFF72DFF0720B7
:101640009EE76F680835B6E71B02059304AB5A7333
:10165000032381E7009A002A49D1002B16D02F6876
:101660006B68FF0F9A1C00D189E732005832049250
:10167000013300D1B7E0281DFFF7E0FD3A0001007B
:1016800004AB300000E000BF00286DD10835BAE798
:101690002A6857009046009A7F08002A0ED1002B36
:1016A00004D0029B002B71D0002F3BD04346002B6F
:1016B00000DA04350137BF00ED19A4E7336A0D21C4
:1016C00020009A46FFF7C2FE8245EFD1B36A9D42E1
:1016D000ECD10023F362043333632B1DB7627363D1
:1016E0002B68002B00DA89E001230193E2E70D214A
:1016F0002000376AFFF7AAFE8742C7D1B36A9D422E
:10170000C4D1B046A2462800FFF7C6FC0F21020054
:101710005046FFF7C1FE504642460021FFF7BCFE8F
:1017200007202DE7B046A2460D215046FFF78EFE5A
:10173000434642461862049B0620536295621FE7A7
:101740002800FFF7A9FC0435A246B5630400300069
:1017500000E000BF002800D111E7504622000F2111
:10176000FFF79AFE07200BE7A2460D210400504622
:10177000FFF76CFEB0463062022C3DD1049B2C3644
:101780003360434606205E629D62F9E62B1D9A4651
:101790000023984658339C4621004A46B444544698
:1017A000A9468A463D0003924746E0460EE043467E
:1017B00020000493FFF742FD0022010004AB30003B
:1017C00000E000BF01370434002804D1AF42EED15D
:1017D0004D46B046A8E72F004D46039B5446994618
:1017E0002B68984662E7B0460D2120001600FFF7EF
:1017F0002DFE43461862C4E7049EC2E7781C8000B1
:10180000B046A24628187FE70000000010B500236C
:10181000FFF784FE10BDC04610B50123FFF77EFE22
:1018200010BDC04610B50223FFF778FE10BDC046BC
:10183000F0B5CE46474680B5060014001D00C3B083
:1018400003297DD059D8002900D181E0012979D11F
:10185000130C14049846240C012D00D1B2E0052D80
:1018600070D11B19202B6DD842460F2A00D8CAE030
:10187000A146002C00D0D8E00F2B3CD801223368C1
:101880001A4207D09343022230001343336048309A
:1018900000F044F9B06B20AF002C2CD00023994607
:1018A00043460022D9007918E40083588B50043253
:1018B0009442FAD14B460019002B00D1DBE06F4671
:1018C0004146102900D210214B4600221039C90090
:1018D0007918DC0083588B5004329442FAD10019F5
:1018E000012D00D1D7E04346B0630F2B00D8DBE0D9
:1018F000380000F015F9002025E0042922D1002B42
:1019000020D1102A1ED8102203681A4200D0A4E069
:1019100020AF380000F00EF9012539000023B26B2A
:1019200028009840044201D001CA08600133043104
:10193000042BF5D13800B26300F0FAF8002002E081
:10194000032B1CD0022043B0C0BCB946B046F0BD4A
:10195000002BF7D1002301271004B26B000C311DBE
:101960003D009D40284201D020CA0D600133043162
:10197000102BF5D10020A404E5D4B263E3E71404EE
:10198000150C240C2B19102BDCD8082203681A42E2
:101990006AD120AF380000F0C9F8ED00B36B002C1D
:1019A0000AD0ED1AE4002A1F1C19BA181900096898
:1019B00004339950A342F9D13800B36300F0B4F86E
:1019C0000020C0E71B19102BBCD843460F2BB9D8F9
:1019D00033681D4206D00322300093433360483001
:1019E00000F098F820AF380000F094F80023B06BB6
:1019F0009946002C00D053E70430B063380000F063
:101A000087F800209FE7102B50D9102252429146B0
:101A100099443368194209D00122300093430132BE
:101A200013433360483000F079F8336804221A42D7
:101A300033D143460F2B03D820AF380000F06EF8A7
:101A40006F46380000F06EF810244346B06BE41A7D
:101A5000002C00DC34E720AF22E793430360D13051
:101A6000FF3000F067F853E7934303605130FF30D5
:101A700000F05CF88DE7012DBED04346B0630F2B1C
:101A800000D938E7380000F047F84B46002B00D16A
:101A900031E76F462CE720AFAEE730009343336069
:101AA000D03000F03FF8C4E720AFEBE733680B42DB
:101AB00015D001223000934392181343336048300D
:101AC00000F02CF820AF380000F028F8B06B002CA4
:101AD00000D0E3E6380000F01FF8002033E70F2ABB
:101AE000F0D9D7E60100343138C9043B9C461D606B
:101AF000A646010020313CC990469946A246AB4615
:101B000001000831FCC941680068E54600BDC046D7
:101B10007047C0467047C0467047C0467047C046D1
:101B20007047C0467047C0467047C0467047C046C1
:101B30007047C0467047C04601B401A801B585B0E2
:101B4000FFB408A841464A4653465C4665463EC037
:101B500001A83EC80F98009000230CB401A9FFF71C
:101B6000F7FB109B12B0184701B401A801B585B06E
:101B7000FFB408A841464A4653465C4665463EC007
:101B800001A83EC80F98009000230CB401A9FFF7EC
:101B900011FC109B12B0184701B401A801B585B023
:101BA000FFB408A841464A4653465C4665463EC0D7
:101BB00001A83EC80F98009000230CB401A9FFF7BC
:101BC0001DFC109B12B0184701B401A801B585B0E7
:101BD000FFB408A841464A4653465C4665463EC0A7
:101BE00001A83EC80F98009000230CB401ABFFF78A
:101BF000D7FB109B12B0184701B401A801B585B0FE
:101C0000FFB408A841464A4653465C4665463EC076
:101C100001A83EC80F98009000230CB401AAFFF75A
:101C200047FC109B12B01847027A0300002A0BD120
:101C3000427A002A0FD0013A42724268111D416077
:101C400003211268017202E0013A02720268100E6A
:101C500012021A607047B020FCE7C046F0B54E464D
:101C600045465746DE460023E0B587B003930F3361
:101C70009846083B994680231B0305000E009A46B0
:101C80003000FFF7D1FF0700B02800D1B8E003060D
:101C900029D5030042469343DBB2802B4BD0902BD7
:101CA00035D0A02B63D0B02B00D176E0C02B00D173
:101CB0008CE003004A469343DBB2D02B0AD1534653
:101CC000024001321A43052301212800FFF7B0FD2D
:101CD0000028D5D00924200007B0F0BCBB46B2468E
:101CE000A946A046F0BDFF2382001340043305AC93
:101CF0009B460D220023002128000094FFF78CFB57
:101D0000059B7F0630D55A469B1A05930BE0833B13
:101D100003400D2BDED005AC02400023002128003B
:101D20000094FFF779FB00230D2200212800009486
:101D3000FFF798FBA4E707023000FFF775FF802448
:101D400038432402A042C5D007010005020C00233D
:101D500000212800FFF76CFD0028BBD1274200D1ED
:101D60008EE7012303938BE75B440593DBE7FF23B7
:101D70004A461B011900824311410A001A403F07DD
:101D800002D58023DB011A43002300212800FFF73E
:101D90004FFD002800D173E79CE7B12844D0B2285A
:101DA00000D19EE0B32854D0FC230340B42B91D043
:101DB0004A465346024001321A43012101232800BA
:101DC000FFF736FD002800D15AE783E7C6284BD03D
:101DD000C7285DD003004A469343DBB2C02B6CD0CA
:101DE000C82871D0C92800D074E73000FFF71CFF65
:101DF000F02203031203134042460240013261E71E
:101E0000039B0024002B00D065E705AE0E220021C5
:101E100028000096FFF700FB00230F220021280076
:101E20000096FFF71FFB56E73000FFF7FDFE021E8E
:101E300000D14FE7030041468B43DBB2002B00D0BB
:101E400048E700212800FFF7F3FC002800D117E73E
:101E500040E73000FFF7E8FEF022030312031340CF
:101E6000424602400132A7E73000FFF7DDFEF022D4
:101E70000303120313404246024001321A43032374
:101E800003212800FFF7D4FC002800D1F8E621E761
:101E90003000FFF7C9FE021E00D11BE703004146D8
:101EA0008B43DBB2002B00D014E704212800FFF79E
:101EB000BFFC002800D1E3E60CE74346A0221F4008
:101EC000013712033A43DAE73000FFF7ADFE43462D
:101ED00002009A43D2B2103218401203013002437A
:101EE000F1E605AC00230D22002128000094FFF745
:101EF00093FA3000FFF798FE0223059F9B460306E6
:101F000010D523005C469B467F231840A0403F1815
:101F1000300005970734FFF787FE0306F4D45B46CD
:101F2000A3461C007F235A4603409340812292001F
:101F300094466744DB19F83A0593002100232800F2
:101F40000094FF3AFFF78EFA9AE6C0461C2101235F
:101F50001B04984201D3000C10391B0A984201D38C
:101F6000000A08391B09984201D30009043902A26A
:101F7000105C40187047C0460403020201010101D1
:101F8000000000000000000010B5002903D1FFF799
:101F9000DDFF203002E00800FFF7D8FF10BDC0468B
:101FA000074B10B50400002B02D0002100E000BF59
:101FB000044B1B68002B00D09847200000F09AF8D3
:101FC000000000002017002870B500260C4C0D4DB5
:101FD000641BA410A64209D1002600F08DF80A4C1B
:101FE0000A4D641BA410A64205D170BDB300EB5886
:101FF00098470136EEE7B300EB5898470136F2E711
:10200000D0080028D0080028D4080028D0080028CC
:10201000002310B59A4200D110BDCC5CC4540133EA
:10202000F8E7062010B500F035F8012000F062F85E
:1020300003008218934200D1704719700133F9E709
:1020400070B504000D001F2904D916230360012078
:10205000404270BDC36B002B04D08A009B181A68E5
:10206000002A08D1200000F031F82A0001002000E9
:1020700000F01AF8EDE70020012AEAD0511C03D144
:10208000162301302360E4E7002428001C609047F9
:102090002000DEE710B5034B01001868FFF7D0FF02
:1020A00010BDC046CC080028002370B5064D0400C2
:1020B000080011002B6000F015F8431C03D12B68B9
:1020C000002B00D0236070BD2417002810B500F04D
:1020D00001F810BD58220120014B40421A607047A0
:1020E0002417002858220120014B40421A607047F3
:1020F00024170028FEE7C046F8B5C046F8BC08BC67
:102100009E467047F8B5C046F8BC08BC9E4670476E
:1021100000000000000000000000000000000000BF
:1021200000000000000000000000000000000000AF
:1021300072B20181B0AB30800000000080080181E4
:10214000B0B0ABF0000000003F020181B0AB3080C6
:102150000000000080060181B0B0ABF0000000007C
:10216000B8DFFF7F0100000030E0FF7FB0B0B0803B
:1021700090E0FF7F01000000D4EFFF7FB0A9028054
:1021800060F0FF7FB0B0A880B4F0FF7F01000000D6
:10219000BCF0FF7FB0B0AA80F0F0FF7F94FFFF7F1C
:1021A000B0F1FF7FAA3F3780F8F1FF7FB0B0A88081
:1021B00004F2FF7FB0B0AA8044F2FF7FB0B0A880E5
:1021C00058F2FF7F01000000E8F2FF7FAA0DB28005
:1021D0004CF3FF7F68FFFF7F34F6FF7FB0B0A8802D
:1021E00050F6FF7F64FFFF7FFCF8FF7F01000000D7
:1021F0006CFAFF7F60FFFF7F54FDFF7F010000004E
:1022000014220010800800281600000090150028F5
:102210006600000000000000E815002850160028A5
:10222000B8160028000000000000000000000000B8
:10223000000000000000000000000000000000009E
:10224000000000000000000000000000000000008E
:10225000000000000000000000000000000000007E
:0C22600080080028F5000010C9000010E4
:020000041008E2
:1000000000000A28D1010810890108108F0108108A
:100010008F0108108F0108108F01081000000000E8
:10002000000000000000000000000000A701081010
:10003000A701081000000000A7010810A701081080
:10004000010000000B000000150000001F00000070
:1000500029000000330000003D00000047000000C0
:10006000A7010810A7010810A7010810A701081090
:10007000A7010810A7010810A7010810A701081080
:100080000348044B834202D0034B03B11847704727
:100090008042002880420028000000000548064BEE
:1000A0001B1AD90F01EBA301491002D0034B03B176
:1000B0001847704780420028804200280000000056
:1000C00010B5064C237843B9FFF7DAFF044B13B1A0
:1000D0000448AFF300800123237010BDB04F002807
:1000E000000000004C75081008B5054B1BB1054910
:1000F0000548AFF30080BDE80840FFF7CFBF00BF61
:1001000000000000B44F00284C750810A3F5803A99
:10011000704700BF174B002B08BF134B9D46FFF7DE
:10012000F5FF00218B460F461348144A121A04F0BB
:10013000E5FE0E4B002B00D098470D4B002B00D056
:1001400098470020002104000D000D48002802D02F
:100150000C48AFF3008004F029FF2000290000F0D4
:100160000FFD04F059F800BF000008000000000077
:100170004303081000000A28B04F0028C05100288F
:1001800000000000000000000ABEFEE77047EFF329
:10019000148010F0020F0CBFEFF30880EFF309801A
:1001A00000F0CAB87047FEE708B500F07EFD074AC8
:1001B000D2F8883043F47003C2F88830BFF34F8F11
:1001C000BFF36F8F00F075FD08BD00BF00ED00E0CC
:1001D00010B572B64F4BDA6822F00B02DA60BFF34B
:1001E0004F8FBFF36F8F4C4AD2F8901241F0070146
:1001F000C2F89012D2F8941241F00701C2F894129A
:10020000DA6842F48072DA60DA6842F40072DA6026
:10021000DA6842F48062DA60DA6842F40062DA6036
:100220003E4B2F22C3F89020C3F89420FFF7BCFF69
:10023000002306E03A4A52F823103A4A42F82310C3
:1002400001331F2BF6D9344B364A9A60BFF34F8FD8
:10025000BFF36F8F5B6913F4003F13D1BFF34F8F70
:10026000BFF36F8F2C4B0022C3F85022BFF34F8F88
:10027000BFF36F8F5A6942F400325A61BFF34F8F58
:10028000BFF36F8F244B0022C3F88420BFF34F8F3E
:10029000D3F88000C0F34E3400E01C46C0F3C9021E
:1002A00043F6E07303EA441343EA82731A49C1F840
:1002B00060321346013A002BF2D1631E002CECD1C0
:1002C000BFF34F8FBFF36F8F00F096F8164A0AE026
:1002D0001068516850F8230041F8230001339168F9
:1002E0008B42F5D30C32114B9A4201D22346F6E7EA
:1002F0000F4A08E01168002041F8230001335168DB
:100300008B42F7D308320B4B9A4201D22346F6E7D1
:10031000FFF700FF0000204000ED00E000EF00E0EC
:100320000000081000400028587508107C7508105F
:100330007C7508108475081008B502F039FE08BDF8
:10034000704708B5FFF7FCFF08BDFEE7002304E097
:10035000064A074942F82310013340F21D32934206
:10036000F6DD044B014A1A60704700BFA042002826
:100370004B0308109C4200287047000010B5002075
:1003800002F080FC124C2060012002F05FFC114B57
:100390001860022002F05AFC0F4B186023680F4AC5
:1003A00013600F4A1A440F49A1FB0212920C0E4926
:1003B0000A6003F2E7330D4AA2FB03239B090C4AB0
:1003C0001360002002F042FC0A4B186010BD00BF11
:1003D0009842002894420028904200288842002831
:1003E0003F420F0083DE1B4380420028D34D621042
:1003F000844200288C42002808B5FFF7BDFFFFF7B4
:10040000BDFFFFF7A3FF08BD08B500F0CFFA00F06D
:100410000FF800F044F800F051F808BD08B500F0FE
:100420005FFB00F03BF800F047F800F0A5F808BDCE
:1004300008B500220121104601F0FCFB42F20F73C7
:1004400000220121104601F0E3F9002201211046AB
:1004500001F09AFB02220021084601F0EBFB002389
:1004600002221946184601F0D3F90222002108465B
:1004700001F08AFB002211464FF4807001F0DAFB94
:100480006C23002211464FF4807001F0C1F9002264
:1004900011464FF4807001F077FB08BD704708B536
:1004A0000022114640F20F1001F010FB0022012142
:1004B000022001F013FC08BD7047000010B5274C66
:1004C00000221146204600F0A1FE00220121204614
:1004D00000F09CFE8034224A0621204600F0BEFD3A
:1004E00000220621204600F091FE80341D4A0021A2
:1004F000204600F0B3FD00221146204600F086FEA3
:10050000194A0221204600F0A9FD002202212046BE
:1005100000F07CFE04F50074144A0521204600F02A
:100520009DFD00220521204600F070FE04F5807438
:100530000F4A0021204600F091FD0022114620467E
:1005400000F064FE0B4A0121204600F087FD0022E6
:100550000121204600F05AFE10BD00BF800031404E
:100560005C6F0810286F0810F46E0810C06E081039
:100570008C6E0810586E0810704708B5002001F006
:10058000BBFC0121002001F0CFFC08BD08B5012013
:1005900001F0B2FC0121084601F0C6FC08BD08B517
:1005A0000621002001F024FC0021084601F046FC51
:1005B0000021084601F06AFC08BD08B50121084683
:1005C00001F016FC0021012001F038FC002101207F
:1005D00001F05CFC012002F073FB08BD08B50721A7
:1005E000022001F005FC0021022001F027FC00217F
:1005F000022001F04BFC022002F062FB08BD08B5AE
:100600000621032001F0F4FB0121032001F016FC78
:100610000021032001F03AFC032002F051FB08BD49
:1006200008B50621042001F0E3FB0221042001F0BB
:1006300005FC0021042001F029FC042002F040FB0D
:1006400008BD08B50221052001F0D2FB00210520DC
:1006500001F0F4FB0021052001F018FC052002F058
:100660002FFB08BD08B50221062001F0C1FB0021C7
:10067000062001F0E3FB0021062001F007FC062024
:1006800002F01EFB08BD08B50221072001F0B0FBF7
:100690000021072001F0D2FB0021072001F0F6FB2A
:1006A000072002F00DFB08BD08B50321082001F06A
:1006B0009FFB0021082001F0C1FB0021082001F070
:1006C000E5FB082002F0FCFA08BD08B5032109206B
:1006D00001F08EFB0021092001F0B0FB0021092070
:1006E00001F0D4FB092002F0EBFA08BD08B50421A3
:1006F0000A2001F07DFB00210A2001F09FFB002170
:100700000A2001F0C3FB0A2002F0DAFA08BD08B59E
:1007100005210B2001F06CFB00210B2001F08EFB6A
:1007200000210B2001F0B2FB0B2002F0C9FA08BD3A
:1007300008B508210C2001F05BFB00210C2001F022
:100740007DFB00210C2001F0A1FB0C2002F0B8FA87
:1007500008BD08B509210D2001F04AFB00210D203C
:1007600001F06CFB00210D2001F090FB0D2002F048
:10077000A7FA08BDFEE7000030B583B0144D002491
:100780000094234622462146284600F009FD0094A5
:10079000234622460121284600F002FD642332222E
:1007A00012210C4801F0D6FB0B4B984208D040F6C2
:1007B000B83001F0B5FC094B984205D003B030BD0C
:1007C0000120FFF7D7FFF2E70120FFF7D3FFF5E79E
:1007D000800031400024F40001004A0002004A0079
:1007E00008B5012002F0CFF90949012002F0DBF938
:1007F00030B942F21071012002F0E5F920B908BDCC
:100800000320FFF7B7FFF4E70320FFF7B3FFF6E796
:100810003870081008B5022002F0B5F90949022025
:1008200002F0C1F930B942F21071022002F0CBF9A6
:1008300020B908BD0320FFF79DFFF4E70320FFF771
:1008400099FFF6E72070081008B5032002F09BF925
:100850000949032002F0A7F930B942F210710320D0
:1008600002F0B1F920B908BD0320FFF783FFF4E7D8
:100870000320FFF77FFFF6E70870081008B5042093
:1008800002F081F90949042002F08DF930B942F2F1
:100890001071042002F097F920B908BD0320FFF77A
:1008A00069FFF4E70320FFF765FFF6E7F06F081034
:1008B00008B5052002F067F90949052002F073F92F
:1008C00030B942F21071052002F07DF920B908BD5F
:1008D0000320FFF74FFFF4E70320FFF74BFFF6E796
:1008E000D86F081008B5062002F04DF90949062016
:1008F00002F059F930B942F21071062002F063F9A2
:1009000020B908BD0320FFF735FFF4E70320FFF708
:1009100031FFF6E7C06F081008B5072002F033F981
:100920000949072002F03FF930B942F2107107205F
:1009300002F049F920B908BD0320FFF71BFFF4E7D7
:100940000320FFF717FFF6E7A86F081008B5082087
:1009500002F019F90949082002F025F930B942F2EC
:100960001071082002F02FF920B908BD0320FFF70D
:1009700001FFF4E70320FFF7FDFEF6E7906F081094
:1009800008B5084801F012FD20B9074801F0BAFD8A
:1009900020B908BD0420FFF7EDFEF6E70420FFF7BD
:1009A000E9FEF6E750700810400D030008B502227A
:1009B0000021084601F08AF8B421002002F044FB2F
:1009C00002F074FB01F0C0FCFFF7D7FDFFF7DEFD7E
:1009D000FFF7D2FE002001F0A9F9012001F0B6F9DD
:1009E0000221012001F010FC0221084601F00CFC5C
:1009F0000221032001F008FC0221042001F004FC84
:100A00000221052001F000FC0221062001F0FCFB80
:100A10000221072001F0F8FB0221082001F0F4FB7D
:100A20004FF48871092001F0EFFB00210A2001F04A
:100A3000EBFBFFF7D5FEFFF7EDFEFFF705FFFFF736
:100A40001DFFFFF735FFFFF74DFFFFF765FFFFF7CE
:100A50007DFFFFF7B2FDFFF7C1FDFFF7D0FDFFF708
:100A6000DFFDFFF7EEFDFFF7FDFDFFF70CFEFFF7E3
:100A70001BFEFFF72AFEFFF739FEFFF748FEFFF7E0
:100A800057FEFFF766FE4FF4FA51012002F0B8FB63
:100A9000012001F03BF94FF4A071002002F0D4FADC
:100AA0000221002001F0B0FBFFF76AFFFFF777FD9E
:100AB00000221146104601F05BF900221146012088
:100AC00001F056F9012001F00DF9002001F014F9B0
:100AD0004FF4FA51012002F093FBFFF74FFC08BDE1
:100AE00008B5034801F05CFBFFF748FC08BD00BFF8
:100AF0000024F40008B5044802F0E6FA08B100202A
:100B000008BD0248FCE700BF804000280000020644
:100B100008B5FFF779FCFFF781FCFFF7EBFF08BD95
:100B2000034BDA6F1A671B6F024B01221A70704772
:100B3000000038403150002808B50C4A00210C480C
:100B400002F082FB00B101BE0A490B4802F0F8F93D
:100B50000A4B0822C3F880211A60054B1A6842F03C
:100B600000421A6010221A6408BD00BF906D081080
:100B700000003840210B0810C471081000E100E0AB
:100B800008B5FFF7C5FF00B101BE62B62F4A304974
:100B9000304800F05BFB00B101BE2E4A136843F001
:100BA000004313600023294A2B492C4800F066F9C2
:100BB00000B101BE294802F0B3FC00B101BE2848D3
:100BC00004F056F8274804F0BBF8274804F0B8F8BA
:100BD000264804F0B5F8264804F0B2F8FFF7ACFF59
:100BE000244804F0ADF81B4BD3F84033DBB2224A63
:100BF00013700D2B0BD0214B1B78002BF3D01F4B08
:100C000000221A701E4B2022C3F88C20EBE71D4BEC
:100C10001B7883B11C4A136823F0004313601B4800
:100C200004F08EF81A4804F023F8164A137883F07B
:100C300001031370DFE7144B1A6842F000421A6098
:100C400010221A64134804F07BF8EBE7F44F0028F5
:100C5000146E081000006740F86D0810D44F00288B
:100C60006470081070700810B4700810C870081014
:100C7000047108104C7108103050002831500028C1
:100C8000000331409C400028000038408C7108105F
:100C9000BC710810A47108100230800803D0013024
:100CA0000238FCD100BF00BF7047EFF3108072B66E
:100CB000704780F31088704708B5034628B15A681A
:100CC0009978188802F05CF808BD01BEF7E708B50E
:100CD0000B46844650B19CF80210DCF80420BCF8A6
:100CE00000002BB100F050FF002008BD01BEF2E76C
:100CF00000F0A0FFF8E738B5034670B11D8828461C
:100D000002F024F801F0A2FF04462D0A07D00120CA
:100D100004EB5004B4FBF0F038BD01BEEEE701F087
:100D20001FF80130F4E700002DE9F04F8DB08A463E
:100D30000A92034600285FD0BAF1000F00D101BE2D
:100D40009F78D3F804B01E881846FFF7D4FF0346F7
:100D500000B901BEB3FBFAF9184602F02DFD0446B6
:100D60000D46CDE90445484602F026FD02460B46F5
:100D7000CDE906232046294602F0C2FECDE908014E
:100D8000012F3BD9DDE908454FF00008CDF82C9044
:100D9000B146504602F010FD02460B46CDE9022353
:100DA00022462B4602F0F4FF002856D0B8F11E0F61
:100DB0004FD808F10106304602F0FEFC00222D4B10
:100DC00002F074FD02460B46DDE9060102F0B8FBB5
:100DD00002460B46DDE9040102F092FE04460D4690
:100DE00002460B46DDE9020102F0D2FF0028D0D016
:100DF000CDE90845B046CCE701BE9DE74FF00008BD
:100E0000DDE9080103F002F802465146012000F036
:100E100061F80028B8BF40420A9B984228D809F1DF
:100E2000FF345A463946304600F004FF012F18D9E6
:100E3000CDF8008023465A463946304600F078FD0A
:100E40005A463946304600F09FFE00200DB0BDE8FE
:100E5000F08F4E46DDF82C90D2E74E46DDF82C9010
:100E6000CEE723465A463946304600F0D1FCE7E744
:100E70000148EBE70000A03F00020204F8B50C4671
:100E800017461E460546C0B1CCB1D7B12368D3B1D1
:100E900020220021284604F031F823682B60A6B1F7
:100EA000AE606F60237AFF2B03D0094A02EBC313B5
:100EB000AB61637A2B770020F8BD01BEE4E701BE89
:100EC000E3E701BEE2E701BEE2E76668E8E700BFEC
:100ED0000000314038B5012804D0022809D008BBF1
:100EE000881A38BD8A1A114B03FB02F292FBF1F00B
:100EF000F7E700238A1A63EB030E90184EEB0E0CF3
:100F000080184EEB0C0C4FEA4C1444EAD0644501B7
:100F100040194CEB040C80180A464EEB0C0102F011
:100F200095FFDEE701BE0020DBE700BF40420F0077
:100F300010B4072900D901BE1F2A00D901BE114CE7
:100F40000444114B03EBD4131B0103290DD818687B
:100F5000C9001F248C4020EA040002F01F028A40CE
:100F600002431A605DF8044B704704395868C900A1
:100F70001F248C4020EA040002F01F028A40024332
:100F80005A60EFE70000CFBF00000304072900D933
:100F900001BE012A04D901BE01238B408360704742
:100FA000002AF9D101238B4043607047072900D9FB
:100FB00001BE012A14BF002301230F2A88BF43F07A
:100FC00001030BB9092A00D101BE8900436C4FF01F
:100FD0000F0C0CFA01FC23EA0C0302F00F028A400A
:100FE0001A4342647047072900D901BE012A00D97B
:100FF00001BE836C4FF0010C0CFA01FC23EA0C03D8
:1010000002F001028A401A4382647047082900D91D
:1010100001BE012A00D901BE83694FF0010C0CFA10
:1010200001FC23EA0C0302F001028A401A438261A8
:101030007047082900D901BE032A00D901BE490022
:10104000036C4FF0030C0CFA01FC23EA0C0302F0D2
:1010500003028A401A43026470470000002818BF48
:10106000002A00F0988070B505460E461446072900
:1010700000D901BE2368012B00D901BE6268012A94
:1010800014BF002301230F2A88BF43F001030BB9CB
:10109000092A00D101BE237A1F2B00D901BEE368C3
:1010A000032B00D901BE2369012B00D901BE63695E
:1010B000012B00D901BE236A012B00D901BE636A4E
:1010C000012B00D901BEA36A012B00D901BEE36A3E
:1010D000032B00D901BE236B072B00D901BEE369A6
:1010E000032B00D901BEA369012B00D901BE012346
:1010F000B3407100103103228A401343EA6C22EAA4
:101100000302A36903F00103B3401343E26902F051
:1011100003028A401343EB64227A31462846FFF7E4
:1011200007FF626831462846FFF740FFE268314614
:101130002846FFF77EFF226931462846FFF766FF03
:10114000626931462846FFF74EFF296D21F0FF0105
:10115000236A03F00103626A520002F002021343A1
:10116000A26A920002F004021343E26AD20002F083
:1011700018021343226B5201D2B21343B20002F49D
:101180007E7293400B432B65226831462846FFF759
:10119000FDFE002070BD0148704700BF01005A00ED
:1011A000F8B507460D4614461E469DF81820072937
:1011B00000D901BE012C14BF002301230F2C88BFCE
:1011C00043F001030BB9092C00D101BE012E00D957
:1011D00001BE1F2A00D901BE29463846FFF7A8FEE6
:1011E0003B680122AA4023EA020306F00106AE4052
:1011F0001E433E607B6CAD000F22AA4023EA02032F
:1012000004F00F04AC401C437C64F8BD01EB4101C9
:10121000036E4FF0070C0CFA01FC23EA0C0302F0FA
:1012200007028A401A43026670470268C2F381329D
:101230008023D340D0F80822C2F308029A4203D098
:10124000C0F840120120704700207047002918BFE5
:10125000002800F0838110B40B78022B00D901BE66
:101260004B7B023BDBB2062B00D901BE8B7B002BF4
:1012700018BF022B02D0032B00D001BE91F8213001
:10128000012B00D901BE91F82830012B00D901BEF5
:101290000B78012B06D98B7F4BB14B68013B062B9A
:1012A00005D903E04B68083B082B00D901BE8B68C9
:1012B000053B042B00D901BE4B69FF2B00D901BEB1
:1012C0008B69FF2B00D901BE8B7C33B10B781BB926
:1012D0008B68092B00F08B8001BE8C6BA14B2340E7
:1012E00003B101BE0C6CA04B234003B101BE0B78CF
:1012F000022B00F081804B6803F1FF3C0B7F002B39
:1013000000F081804FF480338C68082C7DD94FF435
:10131000804423430CF00F0C43EA0C0343F00073AA
:1013200003604C6B0368C3F3813C802323FA0CF306
:101330009C4200D301BECC6B0368C3F3813C802385
:1013400023FA0CF39C4200D301BE4C6A0368C3F33A
:10135000813C802323FA0CF39C4200D301BE0B781E
:101360001B0603F0407303644B7F002B4FD04023D8
:101370008C7C002C4DD04FF4806423430C7C002CDB
:1013800049D04FF4807423434C7C002C45D04FF45B
:1013900000742343CC6A04F1FF3C4FEA0C4C0CF47C
:1013A000702C43EA0C0391F80DC00CF1FF3C0CF0DB
:1013B000070C43EA0C0391F80EC04FEA0C1C0CF02A
:1013C000300C43EA0C038364836C91F8304034B3EF
:1013D0004FF08074234383640B7B13B34FF480730B
:1013E000CC7B04BB0C78022C45D000241DE08B7B09
:1013F000002B3FF472AF6FE78B7F002B7FF47BAF46
:101400004FF0000C7AE700237EE7002481E70023F9
:10141000AEE70024B1E70024B5E70024B9E70024D3
:10142000D8E70023DCE74FF4007423438C6804F111
:10143000FF3C0CF01F0C43EA0C03C0F8003391F89A
:1014400014C08B691B0403F47F034CEA0303C0F848
:101450001033CC6AD0F8003303F01F0303339C42EF
:1014600001D3102C00D901BECB7F3BB10B78012BEF
:1014700064D0002403E04FF40074D6E700244B7BD3
:10148000013B03F00703234391F80EC04FEA0C1C05
:101490000CF0300C43EA0C0343640B7B002B50D060
:1014A0004FF480748B68013B03F01F0323430C78D7
:1014B000012C48D000242343C0F8003291F8343086
:1014C000C0F8043391F82030002B3FD04FF0007368
:1014D00091F82140012C3BD00024234391F828406F
:1014E000012C38D00024234391F824402343036582
:1014F00091F83C30C0F804328B6B23F4926323F0F4
:1015000002031B051B0DC0F8C83F0B6C23F08C03B6
:101510005B055B0DC0F8883F12B30020506010607F
:101520009060D0601062D061D06250638B7F82F88F
:1015300030300E4B93635DF8044B70474FF480746A
:101540009DE70024AEE74FF48034B4E70023BFE703
:101550004FF08074C1E74FF48034C4E7044870470B
:101560000020E8E792F4FFFF8CF8FFFFEFCDAB001F
:101570000160AA0000B586464FF4004100200246F3
:1015800001E0490801320F2A07D840EA010303FBB2
:1015900003FCF445F5D81846F3E75DF804FB0000BA
:1015A000F6EE007AB4EEE70AF1EE10FA57D406DB55
:1015B000DFED3A7AB4EEE70AF1EE10FA52D4DFED3D
:1015C000387AB4EEE70AF1EE10FA4DD4DFED357A51
:1015D000B4EEE70AF1EE10FA48D4DFED337AB4EE58
:1015E000E70AF1EE10FA43D4F6EE087AB4EEE70A11
:1015F000F1EE10FA3ED4DFED2D7AB4EEE70AF1EE0B
:1016000010FA39D4DFED2A7AB4EEE70AF1EE10FAD7
:1016100034D4DFED287AB4EEE70AF1EE10FA2FD4D5
:10162000DFED257AB4EEE70AF1EE10FA2AD4F7EEF0
:10163000007AB4EEE70AF1EE10FA25D4DFED1F7A56
:10164000B4EEE70AF1EE10FA20D4DFED1D7AB4EE25
:10165000E70AF1EE10FA1BD41CDB002070474FF0B4
:10166000FF30704704207047052070470620704700
:101670000720704708207047092070470A207047EC
:101680000B2070470C2070470D2070470E207047CC
:101690000F2070474FF0FF30704700BFCDCC0C3F9C
:1016A0009A99193F6666263F3333333FCDCC4C3F82
:1016B0009A99593F6666663F3333733F6666863F45
:1016C000CDCC8C3FF6EE007AB4EEE70AF1EE10FADC
:1016D0002DD406DBDFED1F7AB4EEE70AF1EE10FA47
:1016E00028D4DFED1D7AB4EEE70AF1EE10FA23D428
:1016F000DFED1A7AB4EEE70AF1EE10FA1ED4DFED50
:10170000187AB4EEE70AF1EE10FA19D4F7EE007A7F
:10171000B4EEE70AF1EE10FA14D4DFED127AB4EE6B
:10172000E70AF1EE10FA0FD410DB072070474FF0F4
:10173000FF30704702207047032070470420704735
:101740000520704706207047072070474FF0FF3094
:10175000704700BF9A99193F3333333FCDCC4C3F8C
:101760006666663FCDCC8C3FB5EEC00AF1EE10FA4E
:1017700006DBDFED217AB4EEE70AF1EE10FA2ED4A3
:10178000DFED1E7AB4EEE70AF1EE10FA29D4DFEDB0
:101790001C7AB4EEE70AF1EE10FA24D4DFED197AE0
:1017A000B4EEE70AF1EE10FA1FD4F2EE067AB4EEC8
:1017B000E70AF1EE10FA1AD4DFED137AB4EEE70A75
:1017C000F1EE10FA15D4DFED117AB4EEE70AF1EE7E
:1017D00010FA02D44FF0FF30704707207047012005
:1017E000704702207047032070470420704705208F
:1017F00070470620704700BFCDCC0C40CDCC8C404C
:101800003333D340CDCC0C413333534166667641FC
:101810004FEA102CB0F5007F00D301BEE1B9BCF156
:10182000030F3FD84FEACC0040F20931C140C9B2A2
:101830008A4239D2FF2B39D8204902EBCC2C0CF547
:10184000806C51F82C2022F47F421B029BB2134380
:1018500041F82C3000207047012901D0184870470A
:10186000BCF1030F24D84FEACC004FF48261C14091
:10187000C9B291421ED9B3F5803F1DD210B40F4CAE
:1018800002EBCC2202F5A06254F822106FF317216C
:101890000C4800EA03230B4344F8223000205DF893
:1018A000044B704706487047054870470448704726
:1018B00003487047024870470148704700000440E1
:1018C00001004A0000FFFF00030AB0F5007F00D3CB
:1018D00001BE012914D901BE032B06D8D8004FF44C
:1018E0008261C140C9B2914200D801BE02EBC3225D
:1018F00002F5A0620D4B53F82200C0F30F20704791
:101900000029E9D1032B06D8D80040F20931C140A3
:10191000C9B28A4200D301BE02EBC32202F5806243
:10192000024B53F82200C0F3072070470000044028
:1019300070B54FEA102CB0F5007F00D301BE02292C
:1019400003D03548032939D070BDBCF1030F2FD81F
:101950004FEACC0E072020FA0EF0C0B2904229D9EF
:1019600004981F288CBF00200120B3F5803F23D2AC
:1019700010B32A4D02EBCC2000F5C06055F8204092
:101980006FF31724264E06EA032E44EA0E0445F8A8
:10199000204055F8204024F0F804049E4FEAC60E7B
:1019A0005FFA8EFE44EA0E0445F820400020C9E7A5
:1019B0001948C7E71848C5E71748C3E7BCF1030F44
:1019C000C2D84FEACC0E40F2037121FA0EF1C9B22F
:1019D0008A42B9D204991F298CBF00210121B3F199
:1019E000807FB1D20029AFD00C4802EBCC2202F5A7
:1019F000E06250F82210C9B241EA032340F82230D5
:101A000050F8221021F0F801049BDB00DBB20B43FD
:101A100040F82230002097E701004A00000004400F
:101A200000FFFF0030B44FEA102CB0F5007F00D368
:101A300001BE881EC0B2012804D901BE032926D0E8
:101A400030BC70470298B0FA80F0400903B100B191
:101A500001BE0229F2D1BCF1030F06D84FEACC0433
:101A60000720E040C0B2904200D801BE164D02EB04
:101A7000CC2000F5C06055F82040C4F30F241C6052
:101A800055F82000C0F3C400029C2060D6E7BCF1EA
:101A9000030F07D84FEACC0040F20371C140C9B22E
:101AA0008A4200D301BE084802EBCC2202F5E06274
:101AB00050F82210090A196050F82230C3F3C40309
:101AC000029A1360BCE700BF000004404FEA102CEC
:101AD000C3B2B0F5007F00D301BE032949D800B5D9
:101AE00059B9BCF1030F08D84FEACC0E40F20930C7
:101AF00020FA0EF0C0B290422CD8012905D002295C
:101B000010D003291AD01E4831E0BCF1030FF6D8DB
:101B10004FEACC0E4FF4826020FA0EF0C0B282423F
:101B200018D3ECE7BCF1030FEBD84FEACC0E07203B
:101B300020FA0EF0C0B282420CD3E2E7BCF1030FF0
:101B400019D84FEACC0E40F2037020FA0EF0C0B262
:101B5000824212D2090201F44071D2B20A4303EB6D
:101B6000CC2303F54073074941F8232000205DF89A
:101B700004FB034870470248F9E70148F7E700BF54
:101B800001004A0000000440030AB0F5007F00D3C2
:101B900001BE032942D851B9032B08D84FEAC30C20
:101BA00040F2093020FA0CF0C0B2904229D8012945
:101BB00005D002290FD0032918D01B487047032BEA
:101BC000F7D84FEAC30C4FF4826020FA0CF0C0B291
:101BD000824216D3EDE7032BEDD84FEAC30C072062
:101BE00020FA0CF0C0B282420BD3E4E7032B17D8E3
:101BF0004FEAC30C40F2037020FA0CF0C0B28242EC
:101C000010D2090201F44071D2B20A4307491143CC
:101C1000074A5B03D150D3580020704702487047F1
:101C2000014870470048704701004A000000FF83E8
:101C300000000440030AB0F5007F00D301BE032971
:101C400041D851B9032B08D84FEAC30C40F20930F0
:101C500020FA0CF0C0B2904229D8012905D00229FF
:101C60000FD0032918D01B487047032BF7D84FEA31
:101C7000C30C4FF4826020FA0CF0C0B2824216D33B
:101C8000EDE7032BEDD84FEAC30C072020FA0CF048
:101C9000C0B282420BD3E4E7032B16D84FEAC30C41
:101CA00040F2037020FA0CF0C0B282420FD2090257
:101CB00001F44071D2B2114341F080415B03064A06
:101CC000D1500020704703487047024870470148D0
:101CD000704700BF01004A000000044008B5FFF74C
:101CE000F5FE08BD034A936823F47F4343EA0023CB
:101CF0009360704700102040034A136923F47F4328
:101D000043EA00231361704700102040042800D9E3
:101D100001BE054A136823F44073000200F44070CA
:101D200003431360704700BF00002740072800D915
:101D300001BE054AD2F8003523F0070300F0070082
:101D40000343C2F80035704700102640034AD368A9
:101D500023F47F4343EA0023D36070470010204000
:101D6000024BD868C0F30720704700BF0010204026
:101D700070B91148836823F47F4343EA01238360E9
:101D8000836823F0F803D200D2B213438360704714
:101D90000948D0F8083423F47F4343EA0123C0F80C
:101DA0000834D0F8083423F0F803D200D2B2134339
:101DB000C0F80834704700BF0000204048B90B4805
:101DC0008368C3F307230B608368C3F3C403136002
:101DD00070470648D0F80834C3F307230B60D0F8E7
:101DE0000834C3F3C4031360704700BF00002040F1
:101DF0000D2898BF0F290DD8074A00F5926052F8B8
:101E0000203023F00F0301F00F010B4342F8203084
:101E100000207047014870470000264001004A003A
:101E20000D2800D901BE00F59260034B53F8200045
:101E300000F00F00704700BF000026400D2898BF3B
:101E400003290ED8084A00F5926052F8203023F09A
:101E50003003090101F030010B4342F8203000202B
:101E600070470248704700BF0000264001004A004A
:101E70000D2800D901BE00F59260034B53F82000F5
:101E8000C0F30110704700BF000026400D2810D895
:101E9000094A00F5926052F8203023F4807381F0F3
:101EA0000101090201F480710B4342F82030002047
:101EB00070470248704700BF0000264001004A00FA
:101EC0000D2801D90020704700F59260044B53F8AB
:101ED000200000F48070B0FA80F04009704700BF25
:101EE00000002640034B186900F00400003818BFBA
:101EF0000120704700002740012808D901BE094A87
:101F0000D2F80C3543F00043C2F80C357047002876
:101F1000F5D1044AD2F8083543F00043C2F8083539
:101F2000704700BF00102640024650B9054BD3F859
:101F3000083523F0010301B101221343014AC2F81D
:101F40000835704700102640014B1868704700BFE5
:101F50003C500028F8B52DED048B0D4602EB8204B1
:101F60005A49D1F81C150029C0F2A280064607EE96
:101F7000900AB8EE677ADFED567AC7EE278A5008E6
:101F8000544901FB0300B0FBF2F0FFF7F3FA06F54A
:101F9000FA73514AA2FB03239B0905FB03F35A087A
:101FA0004E4901FB0022B2FBF3F207EE902AF8EE55
:101FB000677A9FED4B7A87EE878A07EE904AF8EEB4
:101FC000677A9FED487A67EE877A67EEA87A67EEC0
:101FD000A87A07EE105AB8EE477A67EE877A27EEAE
:101FE000277ADFED417A87EE279AB0EE480AFFF7AD
:101FF000D7FA0746B0F1FF3F5CD0F6EE007AB4EEB8
:10200000E78AF1EE10FA57DBDFED387AB4EEE78AB3
:10201000F1EE10FA2CD451DB0025B0EE480AFFF7A0
:1020200051FB0446B0F1FF3F4AD0B0EE490AFFF73A
:102030009BFBB0F1FF3F45D0DFED2D7AF4EEE78A50
:10204000F1EE10FA16DCDFED2B7AF4EEE78AF1EE12
:1020500010FA29DCDFED287AF4EEE78AF1EE10FAC7
:1020600024DCF5EEC08AF1EE10FA2DDD032202E049
:102070000125D2E7002204F007033F01FFB23B43F2
:1020800043F4407343EA8223000300F4E040034337
:102090000E4AC2F844356D00C2F81C55174B1E603D
:1020A0000020BDEC048BF8BD0122E4E70222E2E748
:1020B0001348F6E71348F4E71248F2E71148F0E74F
:1020C0001048EEE70F48ECE70E48EAE7001026401C
:1020D0000024744980841E00D34D6210B36D020049
:1020E00000007A44E6E91D43286B6E4ECDCC8C3F50
:1020F000CDCCE441D7A3BA41000084413850002838
:1021000003004A0001004A00044BD3F8240500F004
:102110000300032800D070470220FCE7001026408F
:1021200038B5164BD3F81C35002B25DB0446B0FA26
:1021300080F56D09114AD2F81C3543F00043C2F80E
:102140001C3503E0012000F025FF013CFFF7DCFF18
:10215000022801D0002CF5D1002C18BF45F0010554
:102160000DB1002038BD054AD2F81C3523F00043DC
:10217000C2F81C350248F5E70248F3E70010264094
:1021800002004A0003004A0008B5FFF7BDFF02281D
:1021900001D0002008BD014B1868FBE7385000282B
:1021A000014B1860704700BF38500028024BD3F82D
:1021B000880000F00100704700002740044BD3F86E
:1021C000880000F00200003818BF0120704700BFEF
:1021D0000000274008B5FFF7F1FF0246084BD3F88F
:1021E000800010F0804006D00AB9002008BDFFF73B
:1021F000DDFF10B9FAE7002AF8D0024B1868F5E7BE
:102200000000274034500028B1F5887F18BF02290C
:1022100009D9B1F58A7218BF012240F2111399420F
:1022200001D002B101BE0A2818D8FF290DD901F04A
:102230001F010B4B00F1400243F8221000F59060A3
:10224000042243F820200020704701F0070100F528
:102250009060034B43F820100020704701487047FE
:102260000000264001004A0002460A2800D901BEAB
:1022700002F59063074951F8230000F00700042895
:1022800000D07047403251F8220000F01F0040F4A7
:102290008070F6E70000264008B50A2800D901BE84
:1022A000FFF7E2FF052808D8052804D8DFE800F08A
:1022B00036181B03031E002008BD40F2111398427C
:1022C0001AD0B0F58A7F1FD0B0F5887F06D1144BA5
:1022D000D3F80835002B0CDB0020EDE70020EBE7FE
:1022E000FFF732FEE8E7FFF74FFFE5E7FFF772FF82
:1022F000E2E74FF40040DFE7FFF7F4FD08B9002004
:10230000DAE74FF40040D7E7054BD3F80835002B48
:1023100001DB0020D0E74FF40040CDE70148CBE7D8
:102320000010264000127A00024BD3F83005C00F8F
:10233000704700BF00102640024BD3F8400500F064
:10234000010070470010264010B5164AD2F8383503
:1023500023F0405343F00053C2F838356424114B46
:10236000D3F8383503F04053B3F1005F05D024B102
:10237000012000F00FFE013CF1E70CB90A4810BD46
:10238000012000F007FE074BD3F8302522F0004271
:10239000C3F83025D3F83C2522F00042C3F83C2591
:1023A0000020ECE70010264002004A0010B5044669
:1023B00000286BD0FFF7B8FF00286BD12368B3F576
:1023C000802F00D301BE2368C3F31103E279002AF2
:1023D0005ED04FF0807213432F4AC2F83035A38885
:1023E000B3F5005F00D301BE2389FF2B00D901BEE6
:1023F000A388C3F30C032289120402F47F0213435F
:10240000254AC2F83435A37A0F2B00D901BEE37AEE
:102410000F2B00D901BEA389B3F5005F00D301BE25
:10242000A37A03F00F03E27A1201D2B21343A18917
:102430001A4A02EA01221343A27B120702F0405219
:102440001343154AC2F83835A379042B00D901BECD
:10245000238AB3F5007F00D301BE0F49D1F83C3584
:1024600023F4E063A279120202F4E0621343C1F89C
:102470003C35D1F83C356FF31843208A084A02EA0C
:1024800000421343C1F83C35002010BD01BE91E766
:102490000022A0E70348F8E70010264000FF1F00D5
:1024A0000000FF0103004A00034638B31449D1F885
:1024B0003025C2F311001860C2F30062DA71D1F85E
:1024C0003425C2F30C009880C2F307421A81D1F878
:1024D000382502F00F009872C2F30310D872C2F3CD
:1024E0000C209881C2F301729A73D1F83C25C2F393
:1024F00002219971C2F308421A82704701BED5E7E2
:102500000010264038B50446B0FA80F56D09234A1C
:10251000D2F83C3543F00043C2F83C3503E00120DB
:1025200000F038FD013C1D4BD3F8403513F0040F8B
:1025300001D1002CF3D1194AD2F8383523F0405399
:1025400043F00053C2F83835002C0CBF2B4645F041
:10255000010353B1D2F8303543F00043C2F83035AF
:1025600003E0012000F016FD013CFFF7E5FE08B98D
:10257000002CF6D1002C18BF45F001054DB1074ADB
:10258000D2F8383543F04053C2F8383525B1002031
:1025900038BDFFF7D9FEF9E70148F9E700102640FA
:1025A00002004A0070B586B001A800230193436081
:1025B0008360C3600361FFF777FFFFF7B5FE38B1B3
:1025C0009DF81230022B01D0012002E0002000E033
:1025D0000020019DBDF808409DF80B304BB102264C
:1025E000002C0CBF002000F0010020B9002006B034
:1025F00070BD0126F4E70020FFF74EFEA0FB0501A9
:10260000A4FB06235408001941F1000101F06EFCFF
:10261000EDE70000042800D901BE00F5C8700001F4
:10262000014B1858C00F70470000264038B50428E9
:1026300000D901BE094D00F5C87004012B5923F0E3
:10264000405343F000532B51012000F0A3FC2B59C1
:1026500023F000432B51002038BD00BF000026406E
:1026600038B504460D46042800D901BE2046FFF7C0
:10267000D1FF00284DD1AA78931EDBB20E2B4AD889
:102680006B78002B49D0102B49D829780F2948D9CD
:10269000C82948D8287902282CD01B0203F4F85303
:1026A0001943120402F4F8121143204A04F5C873C6
:1026B0004FEA031C02EB031042F80C10AB6823F046
:1026C0007F43297B090701F0E0410B43697B43EA23
:1026D000C17343602B69C3F30903297D090401F425
:1026E000E0210B43697D43EAC17302EB041241F61A
:1026F000081153500D4904F5C87424010B5923F0F7
:1027000040532A79120702F0405213430B51002024
:1027100000E0074838BD0748FCE70648FAE70548E7
:10272000F8E70448F6E70348F4E700BF0000264056
:1027300003004A0001004A0010B58446042800D96D
:1027400001BE0020086048608860C8600861486178
:10275000164A0CF5C8731C0102EB031E13590B70CB
:10276000C3F304244C70C3F304448C70C3F30173AB
:102770000B71DEF8043023F07F448C6003F0E04EF0
:10278000BEEB000E18BF4FF0010E81F80CE0DB0F1E
:102790004B7302EB0C1241F60813D358DAB20A61FC
:1027A000C3F302420A75DB0F4B7510BD00002640D3
:1027B00070B505460C46B1FA81F67609042800D9B1
:1027C00001BE224905F5C8731B01CA5842F00042F8
:1027D000CA5003E0012000F0DDFB013C2A011B4B45
:1027E000134441F60C129B5813F0010F01D1002C39
:1027F000F0D1002C18BF46F00106A6B105F5C8734C
:102800001B01124AD35803F04053B3F1005F01D0CB
:10281000002070BD05F5C8752D01535943F0405394
:1028200053510020F5E7094C05F5C8752D01635992
:1028300023F0405343F000536351012000F0AAFB02
:10284000635923F0004363510148E2E7000026404A
:1028500002004A002DE9F04186B00446042800D960
:1028600001BE6946002300930193029303930493EE
:1028700005932046FFF760FF2046FFF7CBFE38B1F7
:102880009DF80430022B01D0012302E0002300E078
:1028900000239DF800609DF801709DF802502846C5
:1028A000DDF80880002F0CBF002303F00103B3B153
:1028B000B5B1601CFFF7F0FC0446310A360616EB92
:1028C000080641F10001A0FB0606A7FB052304FB57
:1028D000016101F00BFB000E40EA012000E0002046
:1028E00006B0BDE8F0810000022800D901BE00F565
:1028F000B060024B53F82000C00F70470000264024
:1029000038B5022800D901BE0A4D00F5B06455F86B
:10291000243023F0405343F0005345F82430012085
:1029200000F038FB55F8243023F0004345F82430FC
:10293000002038BD0000264038B504460D46022868
:1029400000D901BE2046FFF7CFFF002843D1AA7867
:10295000931EDBB20E2B40D86B78002B3FD0122B8E
:102960003FD82978E87880B34FF0130C61453AD30B
:1029700070B34FF0380C614537D895F804C0BCF1FE
:10298000020F12D001F07F011B0203F4F8530B4336
:10299000120402F4F8121343C00600F0006003436F
:1029A00004F5B062124941F82230114904F5B064CF
:1029B00051F8243023F040532A79120702F0405294
:1029C000134341F82430002006E04FF0160CCDE709
:1029D0004FF0700CCFE7074838BD0748FCE70648C2
:1029E000FAE70548F8E70448F6E70348F4E700BFCC
:1029F0000000264003004A0001004A000346022866
:102A000000D901BE0020086048608860C860086185
:102A1000486103F5B063094A52F8233003F07F029E
:102A20000A70C3F304224A70C3F304428A70C3F3EA
:102A3000C062CA70C3F301730B7170470000264077
:102A400070B505460C46B1FA81F67609022800D920
:102A500001BE244A05F5B06152F8213043F000432D
:102A600042F8213003E0012000F094FA013C05F522
:102A7000B2631C4A52F8233013F0010F01D1002C2D
:102A8000F1D1002C18BF46F00106AEB105F5B063D8
:102A9000144A52F8233003F04053B3F1005F01D0E1
:102AA000002070BD05F5B06552F8253043F0405365
:102AB00042F825300020F4E70A4C05F5B06554F8DB
:102AC000253023F0405343F0005344F825300120D3
:102AD00000F060FA54F8253023F0004344F8253024
:102AE0000148DEE70000264002004A00F0B587B04A
:102AF0000446022800D901BE6946002300930193D1
:102B000002930393049305932046FFF777FF204633
:102B1000FFF7EAFE38B19DF80430022B01D0012105
:102B200002E0002100E000219DF800709DF80160A6
:102B30009DF802502846002E0CBF002101F0010133
:102B400071B175B1A01DFFF7A7FBA0FB0701A6FBA4
:102B500005235408001941F1000101F0C7F900E014
:102B6000002007B0F0BD08B5431E072B05D8042B85
:102B700005D90638FFF7B8FE08BD01BEF9E71846CB
:102B8000FFF748FDF8E708B5431E072B05D8042BCF
:102B900005D90638FFF7B4FE08BD01BEF9E71846AF
:102BA000FFF744FDF8E708B5431E072B05D8042BB3
:102BB00005D90638FFF7C0FE08BD01BEF9E7184683
:102BC000FFF74EFDF8E708B5431E072B05D8042B89
:102BD00005D90638FFF734FF08BD01BEF9E71846EE
:102BE000FFF7E6FDF8E708B5034600B901BE581E39
:102BF000072805D8042805D9981FFFF777FF08BDD7
:102C000001BEF9E7FFF726FEF9E738B504460A28C2
:102C100000D901BE2046FFF73FFB054624B1631EE5
:102C2000072B09D9284638BDFFF77EFB0028F6D0D0
:102C3000FFF7B8FC0546F5E72046FFF794FF0028AC
:102C4000F0D02046FFF7CFFF0546EBE7F8B5054685
:102C5000FFF70EF90646012303FA00F72846FFF7AF
:102C6000DFF8FFF7D2FF04462846FFF729F920B91D
:102C700004EB570424FA06F0F8BD0148FCE700BF56
:102C800000127A00F0B583B007460120FFF7DEFF9F
:102C900000250195C60E44016A4601A93846FFF792
:102CA0008DF8019B0133009A02EB43125008001982
:102CB0002B4646F1000101F019F903B0F0BD000008
:102CC00010B50446FFF7C2FF0D2C0DD8084B9842F3
:102CD0000CD8084A04F5926452F8243043F00043BB
:102CE00042F82430002010BD0348FCE70348FAE70F
:102CF0008093DC140000264001004A0003004A00D3
:102D00000139072905D8DFE801F0060E041704048D
:102D100004120B4870470B4B1B787BB90A4B0122FE
:102D20001A70002070470020074B18707047064B40
:102D300000221A7002487047002070470048704710
:102D4000FF0042004150002840500028C0F30723F4
:102D500010F47F0F0ED110F47E4F0ED182B00022FE
:102D600000920222019202AA02EB830353F8080C9C
:102D700002B070474FF0FF3070474FF0FF307047A0
:102D80002DE9F04385B006460C4617460023039311
:102D9000FEF7E6FF350A20D04FF00108012D00D9DB
:102DA00001BE3046FFF7D2FF44B9032D06D8EA0032
:102DB00040F20933D340DBB2BB4206D8012C11D01C
:102DC000022C19D0032C20D001BEB0F1FF3F27D137
:102DD0000025284605B0BDE8F083FEF7C1FF00F1ED
:102DE0000108DBE7032DEBD8EA004FF48263D34000
:102DF000DBB29F42E9D3E3E7032DE3D8EA000723E0
:102E0000D340DBB29F42E0D3DCE7032DDCD8EB00FC
:102E100040F2037222FA03F3DBB29F42D5D3D3E729
:102E2000FFF714FF00EB5805B5FBF8F5012C20D98E
:102E3000A31EDBB2012BCCD84FF00008CDF80880E0
:102E40004FEAD5696D0102AB009303AB3A462146C8
:102E50003046FEF7E7FD039B0133029A02EB431273
:102E600050084019434649F1000101F03FF805467A
:102E7000AFE73A4621463046FEF726FD0130039083
:102E800005EB5005B5FBF0F5A3E70000002804DBD7
:102E90004901C9B2044B1954704700F00F004901B1
:102EA000C9B2024B1954704700E400E014ED00E091
:102EB00040F2FF33994210D00E4B1B6803F470634D
:102EC000B3F5606F0BD000F00F0040F0004001F54B
:102ED0004051084B43F82100704701BEECE700F079
:102EE0000F0040F0004001F52051024B43F8210053
:102EF000704700BF000020400A4B9A680A4B9A4274
:102F000004D01030094B53F82000704739B100F15C
:102F10001003054A52F8230042F82310704701BEFF
:102F2000F5E700BF00ED00E00040002800000810B9
:102F3000024B1B680BB143F8201070479C420028DD
:102F40002DE9F04110B30E4605464368072B00D922
:102F500001BE2C68230C4FEA2448A4B26A68072AF1
:102F600000D901BE072B0BD9094F69684046FFF70E
:102F70008DFF31462046FFF7DBFF3846BDE8F08184
:102F800021464046FFF794FF0027EEE7004FF4E7A5
:102F90000100560008B5044B1B6803FB00F040001D
:102FA000FDF77AFE08BD00BF80420028FEE7000062
:102FB00008B50268224B1A6042685A6082689A60BB
:102FC000C268DA6002691A6142695A6182699A616B
:102FD000C269DA611B4A916A1962D16A5962516AFF
:102FE0009962516BD962926B1A63F1EE103A13F049
:102FF000900F22D0026A124B5A63426A9A63826A25
:10300000DA63C26A1A64026B5A64426B9A64826B16
:10301000DA64C26B1A65026C5A65426C9A65826CFE
:10302000DA65C26C1A66026D5A66426D9A66826DE6
:10303000DA66C26D1A67026E5A67FFF7B7FF08BDFE
:10304000184F002800ED00E000B101BE6429154BC7
:10305000D3F8C42322F0030288BF42F00102C3F870
:10306000C423D3F8C42322F44072C3F8C423D3F892
:10307000002322F0030288BF42F00102C3F80023BC
:10308000D3F8002322F44072C3F8002307D80021AC
:10309000054A136823F00F030B43136070470121A7
:1030A000F6E700BF001020400000244008B5054AA4
:1030B000536823F0805353600620FFF76BFF002016
:1030C00008BD00BF0010264000283DD00246C3685E
:1030D000002B3BD00368002B3AD090F804C01E4B65
:1030E00053F82C1041B310B40C4600E019464B695C
:1030F0003BB1914205D0187E117E8842F6D81C461D
:10310000F4E7914226D023694BB16369536114619E
:1031100003B11A61626101205DF8044B7047117EB2
:10312000237E9942F1D254610023136122610A4B3C
:1031300043F82C200120EFE7074B43F82C00002335
:1031400043610361012070470020704700207047F1
:10315000002070470020DFE7445000284FF0E022B5
:10316000136943F0020313617047B0F1807F00D30D
:1031700001BE20F07F404FF0E023586170474FF0D0
:10318000E02300229A6170474FF0E023186900F4B1
:103190008030704710B5FFF7F7FF50B910BD01340C
:1031A000042CFBD8044B53F82430002BF7D098475D
:1031B000F5E70024F4E700BF5850002808B5FFF7F2
:1031C000CDFF4FF0E022136943F00103136108BD06
:1031D00004280CD0000600F04070084BC3F800062D
:1031E0004FF0E022136923F00403136170474FF09E
:1031F000E022136943F0040313617047001020407C
:1032000070B506460D46B1F1807F00D301BE0023A4
:1032100004E00B4A002442F823400133042BF8D980
:1032200008494FF0FF30FFF767FE3046FFF7D0FF49
:103230002846FFF79AFFFFF7A2FFFFF7BFFF70BD19
:103240005850002895310810002818BF002A00F0B7
:10325000CC8030B54FEA112E5FFA81FC21F0FF01DE
:103260006144CB0100EBC111C45813790B6393681F
:103270009B0403F48023D168090401F440310B431B
:103280001169090601F0E0610B43117F002900F08C
:10329000978001210B43002CC0F2948000210B4346
:1032A0000CEB0E21C9014350D368002B40F08D80F8
:1032B0000CEB0E2300EBC31300219960116901BBD5
:1032C00054690CEB0E2300EBC3131C6194695C6121
:1032D000072323FA0EF313F0010F12D0946D0CEBB9
:1032E0000E23DD0100EBC3139C61D46DDC614359F7
:1032F00092F8544004B1022119430CEB0E23DB0178
:10330000C15011680CEB0E2300EBC3131962936CD0
:10331000B3F1FF3F14D092F82810146B240404F486
:103320007F042143146C41EA04611B029BB20B43EE
:103330000CEB0E2100EBC1114B6492F838308B641A
:10334000536A03F00303D16A090101F030010B4312
:10335000516B090201F440710B43D16B8901C9B271
:103360000B43516C890001F00C010B430CEB0E2157
:1033700000EBC111CB64072323FA0EF313F0010F06
:103380000DD00B468C6C116D090289B221439964F2
:10339000DC6CD16C890201F440612143D964136E65
:1033A00003F00703516E090101F070010B430CEBB0
:1033B0000E2C00EBCC104365136A8367002030BDF0
:1033C000002167E74FF0004169E7012B06D00CEBC5
:1033D0000E2300EBC313012199606FE711680CEB1A
:1033E0000E2300EBC313996068E70148704700BFE4
:1033F0000100B60008B501F0D3FD582303604FF07B
:10340000FF3008BD08B501F0CBFD5823036001BEB5
:103410004FF0FF3008BD08B501F0C2FD582303602E
:1034200001BE4FF0FF3008BD08B501F0B9FD5823CB
:10343000036001BE4FF0FF3008BD08B501F0B0FDDC
:103440005823036001BE4FF0FF3008BD08B501F0FE
:10345000A7FD5823036001BE4FF0FF3008BD0000F8
:10346000094B1B682BB1084B1B681A68D2F8403314
:1034700003E001BEF7E7D2F84033B3F1FF3FFAD0E3
:1034800003700020704700BF6C50002838B5044618
:10349000084B1B681BB1074B1D68002005E001BEEF
:1034A000F9E721462868FDF7C0FE0028F9D0002082
:1034B00038BD00BF6C50002870B521B116460D46CE
:1034C00000231C4604E00024204670BD0135013471
:1034D000B442F9DA002BF7D12878FFF7D7FF03467B
:1034E0000028F3D0F0E770B5B9B116460C460025B8
:1034F00006E00134B542ACBF0021012173B969B1C6
:103500002046FFF7ADFF03460028F3D101352178AF
:103510000D2918BF0A29ECD100E00025284670BD0E
:10352000024618B1024B1A600020704701BEF9E74D
:103530006C50002881F0004102E000BF83F000439E
:1035400030B54FEA41044FEA430594EA050F08BF3E
:1035500090EA020F1FBF54EA000C55EA020C7FEA02
:10356000645C7FEA655C00F0E2804FEA5454D4EB7F
:103570005555B8BF6D420CDD2C4480EA020281EA49
:10358000030382EA000083EA010180EA020281EA81
:103590000303362D88BF30BD11F0004F4FEA0131D3
:1035A0004FF4801C4CEA113102D0404261EB4101E2
:1035B00013F0004F4FEA03334CEA133302D0524268
:1035C00063EB430394EA050F00F0A780A4F1010424
:1035D000D5F1200E0DDB02FA0EFC22FA05F280185E
:1035E00041F1000103FA0EF2801843FA05F3594144
:1035F0000EE0A5F120050EF1200E012A03FA0EFCC3
:1036000028BF4CF0020C43FA05F3C01851EBE371EC
:1036100001F0004507D54FF0000EDCF1000C7EEB09
:1036200000006EEB0101B1F5801F1BD3B1F5001F47
:103630000CD349085FEA30004FEA3C0C04F1010466
:103640004FEA445212F5800F80F09A80BCF1004F8F
:1036500008BF5FEA500C50F1000041EB045141EA11
:10366000050130BD5FEA4C0C404141EB0101013CDA
:1036700028BFB1F5801FE9D291F0000F04BF0146C9
:103680000020B1FA81F308BF2033A3F10B03B3F19B
:1036900020020CDA0C3208DD02F1140CC2F10C022B
:1036A00001FA0CF021FA02F10CE002F11402D8BF89
:1036B000C2F1200C01FA02F120FA0CFCDCBF41EA55
:1036C0000C019040E41AA2BF01EB0451294330BD24
:1036D0006FEA04041F3C1CDA0C340EDC04F1140401
:1036E000C4F1200220FA04F001FA02F340EA0300D8
:1036F00021FA04F345EA030130BDC4F10C04C4F11E
:10370000200220FA02F001FA04F340EA03002946FD
:1037100030BD21FA04F0294630BD94F0000F83F447
:10372000801306BF81F480110134013D4EE77FEA2A
:10373000645C18BF7FEA655C29D094EA050F08BF76
:1037400090EA020F05D054EA000C04BF1946104657
:1037500030BD91EA030F1EBF0021002030BD5FEA9B
:10376000545C05D14000494128BF41F0004130BDC3
:1037700014F580043CBF01F5801130BD01F0004517
:1037800045F0FE4141F470014FF0000030BD7FEA8A
:10379000645C1ABF194610467FEA655C1CBF0B4685
:1037A000024650EA013406BF52EA033591EA030F9C
:1037B00041F4002130BD00BF90F0000F04BF002194
:1037C000704730B54FF4806404F132044FF00005C7
:1037D0004FF0000150E700BF90F0000F04BF002140
:1037E000704730B54FF4806404F1320410F00045A6
:1037F00048BF40424FF000013EE700BF42004FEAA1
:10380000E2014FEA31014FEA02701FBF12F07F431D
:1038100093F07F4F81F06051704732F07F4208BFD4
:10382000704793F07F4F04BF41F40021704730B5DB
:103830004FF4607401F0004521F000411CE700BF27
:1038400050EA010208BF704730B54FF000050AE0AA
:1038500050EA010208BF704730B511F0004502D5AB
:10386000404261EB41014FF4806404F132045FEAAD
